{
  "contractName": "Twitter",
  "abi": [
    {
      "inputs": [],
      "stateMutability": "nonpayable",
      "type": "constructor"
    },
    {
      "inputs": [
        {
          "internalType": "string",
          "name": "",
          "type": "string"
        }
      ],
      "name": "addressOfTag",
      "outputs": [
        {
          "internalType": "bytes32",
          "name": "",
          "type": "bytes32"
        }
      ],
      "stateMutability": "view",
      "type": "function",
      "constant": true
    },
    {
      "inputs": [],
      "name": "owner",
      "outputs": [
        {
          "internalType": "address",
          "name": "",
          "type": "address"
        }
      ],
      "stateMutability": "view",
      "type": "function",
      "constant": true
    },
    {
      "inputs": [],
      "name": "isOwner",
      "outputs": [
        {
          "internalType": "bool",
          "name": "",
          "type": "bool"
        }
      ],
      "stateMutability": "view",
      "type": "function",
      "constant": true
    },
    {
      "inputs": [
        {
          "internalType": "string",
          "name": "tag",
          "type": "string"
        }
      ],
      "name": "donateToHashTag",
      "outputs": [],
      "stateMutability": "payable",
      "type": "function",
      "payable": true
    },
    {
      "inputs": [
        {
          "internalType": "string",
          "name": "tag",
          "type": "string"
        }
      ],
      "name": "getDonatedAmountToHashTag",
      "outputs": [
        {
          "internalType": "uint256",
          "name": "",
          "type": "uint256"
        }
      ],
      "stateMutability": "view",
      "type": "function",
      "constant": true
    },
    {
      "inputs": [
        {
          "internalType": "string",
          "name": "tag",
          "type": "string"
        },
        {
          "internalType": "uint256",
          "name": "amount",
          "type": "uint256"
        },
        {
          "internalType": "address payable",
          "name": "to",
          "type": "address"
        }
      ],
      "name": "transferFromHashTag",
      "outputs": [],
      "stateMutability": "nonpayable",
      "type": "function"
    },
    {
      "inputs": [],
      "name": "getBalance",
      "outputs": [
        {
          "internalType": "uint256",
          "name": "",
          "type": "uint256"
        }
      ],
      "stateMutability": "view",
      "type": "function",
      "constant": true
    }
  ],
  "bytecode": "0x608060405234801561001057600080fd5b50336000806101000a81548173ffffffffffffffffffffffffffffffffffffffff021916908373ffffffffffffffffffffffffffffffffffffffff160217905550610b04806100606000396000f3fe6080604052600436106100705760003560e01c80634d6effe01161004e5780634d6effe0146100f9578063582c0aae146101365780638da5cb5b1461015f5780638f32d59b1461018a57610070565b806312065fe0146100755780632d55d190146100a057806342c7316c146100dd575b600080fd5b34801561008157600080fd5b5061008a6101b5565b604051610097919061080f565b60405180910390f35b3480156100ac57600080fd5b506100c760048036038101906100c291906105cc565b6101bd565b6040516100d4919061080f565b60405180910390f35b6100f760048036038101906100f291906105cc565b6101fb565b005b34801561010557600080fd5b50610120600480360381019061011b9190610611565b6102c0565b60405161012d91906107d4565b60405180910390f35b34801561014257600080fd5b5061015d60048036038101906101589190610652565b6102ee565b005b34801561016b57600080fd5b50610174610470565b604051610181919061079e565b60405180910390f35b34801561019657600080fd5b5061019f610499565b6040516101ac91906107b9565b60405180910390f35b600047905090565b600060026000600185856040516101d592919061076e565b908152602001604051809103902054815260200190815260200160002054905092915050565b600034141561023f576040517f08c379a0000000000000000000000000000000000000000000000000000000008152600401610236906107ef565b60405180910390fd5b6000828260405160200161025492919061076e565b604051602081830303815290604052805190602001209050806001848460405161027f92919061076e565b908152602001604051809103902081905550346002600083815260200190815260200160002060008282546102b491906108a7565b92505081905550505050565b6001818051602081018201805184825260208301602085012081835280955050505050506000915090505481565b6102f6610499565b6102ff57600080fd5b8147101561030c57600080fd5b81600260006001866040516103219190610787565b908152602001604051809103902054815260200190815260200160002054101561034a57600080fd5b816002600060018660405161035f9190610787565b9081526020016040518091039020548152602001908152602001600020600082825461038b91906108fd565b925050819055508073ffffffffffffffffffffffffffffffffffffffff166108fc839081150290604051600060405180830381858888f193505050501580156103d8573d6000803e3d6000fd5b506000600260006001866040516103ef9190610787565b908152602001604051809103902054815260200190815260200160002054141561046b57600260006001856040516104279190610787565b9081526020016040518091039020548152602001908152602001600020600090556001836040516104589190610787565b9081526020016040518091039020600090555b505050565b60008060009054906101000a900473ffffffffffffffffffffffffffffffffffffffff16905090565b60008060009054906101000a900473ffffffffffffffffffffffffffffffffffffffff1673ffffffffffffffffffffffffffffffffffffffff163373ffffffffffffffffffffffffffffffffffffffff1614905090565b60006105036104fe8461084f565b61082a565b90508281526020810184848401111561051b57600080fd5b610526848285610995565b509392505050565b60008135905061053d81610aa0565b92915050565b60008083601f84011261055557600080fd5b8235905067ffffffffffffffff81111561056e57600080fd5b60208301915083600182028301111561058657600080fd5b9250929050565b600082601f83011261059e57600080fd5b81356105ae8482602086016104f0565b91505092915050565b6000813590506105c681610ab7565b92915050565b600080602083850312156105df57600080fd5b600083013567ffffffffffffffff8111156105f957600080fd5b61060585828601610543565b92509250509250929050565b60006020828403121561062357600080fd5b600082013567ffffffffffffffff81111561063d57600080fd5b6106498482850161058d565b91505092915050565b60008060006060848603121561066757600080fd5b600084013567ffffffffffffffff81111561068157600080fd5b61068d8682870161058d565b935050602061069e868287016105b7565b92505060406106af8682870161052e565b9150509250925092565b6106c281610931565b82525050565b6106d181610955565b82525050565b6106e081610961565b82525050565b60006106f2838561089c565b93506106ff838584610995565b82840190509392505050565b600061071682610880565b610720818561089c565b93506107308185602086016109a4565b80840191505092915050565b600061074960128361088b565b915061075482610a77565b602082019050919050565b6107688161098b565b82525050565b600061077b8284866106e6565b91508190509392505050565b6000610793828461070b565b915081905092915050565b60006020820190506107b360008301846106b9565b92915050565b60006020820190506107ce60008301846106c8565b92915050565b60006020820190506107e960008301846106d7565b92915050565b600060208201905081810360008301526108088161073c565b9050919050565b6000602082019050610824600083018461075f565b92915050565b6000610834610845565b905061084082826109d7565b919050565b6000604051905090565b600067ffffffffffffffff82111561086a57610869610a37565b5b61087382610a66565b9050602081019050919050565b600081519050919050565b600082825260208201905092915050565b600081905092915050565b60006108b28261098b565b91506108bd8361098b565b9250827fffffffffffffffffffffffffffffffffffffffffffffffffffffffffffffffff038211156108f2576108f1610a08565b5b828201905092915050565b60006109088261098b565b91506109138361098b565b92508282101561092657610925610a08565b5b828203905092915050565b600061093c8261096b565b9050919050565b600061094e8261096b565b9050919050565b60008115159050919050565b6000819050919050565b600073ffffffffffffffffffffffffffffffffffffffff82169050919050565b6000819050919050565b82818337600083830152505050565b60005b838110156109c25780820151818401526020810190506109a7565b838111156109d1576000848401525b50505050565b6109e082610a66565b810181811067ffffffffffffffff821117156109ff576109fe610a37565b5b80604052505050565b7f4e487b7100000000000000000000000000000000000000000000000000000000600052601160045260246000fd5b7f4e487b7100000000000000000000000000000000000000000000000000000000600052604160045260246000fd5b6000601f19601f8301169050919050565b7f596f752063616e277420646f6e61746520300000000000000000000000000000600082015250565b610aa981610943565b8114610ab457600080fd5b50565b610ac08161098b565b8114610acb57600080fd5b5056fea26469706673582212207922042406a45a9f2013d505fa6daf0dec0a5661370e73f7fb68f840a728920d64736f6c63430008040033",
  "immutableReferences": {},
  "source": "// SPDX-License-Identifier: MIT\npragma solidity ^0.8.4;\n\ncontract Twitter {\n    address private _owner; \n    \n    constructor()  {\n      _owner = msg.sender;\n    }\n\n    mapping(string => bytes32) public addressOfTag; \n    mapping(bytes32 => uint) private balanceOfTags; \n\n    function owner() public view returns(address) {\n        return _owner;\n    }\n\n    function isOwner() public view returns(bool) {\n        return msg.sender == _owner;\n    }\n\n    modifier onlyOwner() {\n        require(isOwner());\n        _;\n    }\n\n    function donateToHashTag(string calldata tag) external payable {\n       require(msg.value != 0 wei, \"You can't donate 0\");\n       bytes32 _address = keccak256(abi.encodePacked(tag));\n       addressOfTag[tag] = _address; \n       balanceOfTags[_address] += msg.value; \n    }\n\n    function getDonatedAmountToHashTag(string calldata tag) external view returns(uint){\n        return balanceOfTags[addressOfTag[tag]]; \n    }\n\n    function transferFromHashTag(string memory tag, uint amount, address payable to) public onlyOwner{\n        require(address(this).balance >= amount); \n        require(balanceOfTags[addressOfTag[tag]] >= (amount));\n        balanceOfTags[addressOfTag[tag]] -= amount; \n        to.transfer((amount)); \n        if(balanceOfTags[addressOfTag[tag]] == 0){\n            delete balanceOfTags[addressOfTag[tag]];\n            delete addressOfTag[tag]; \n        }\n    }\n\n    function getBalance() public view returns (uint ) {\n        return address(this).balance; \n    }\n}\n",
  "sourcePath": "/home/sarmad/Documents/Twitter/contracts/Twitter.sol",
  "compiler": {
    "name": "solc",
    "version": "0.8.4+commit.c7e474f2.Emscripten.clang"
  },
  "schemaVersion": "3.4.10",
  "updatedAt": "2022-09-22T17:23:04.580Z",
  "networkType": "ethereum",
  "devdoc": {
    "kind": "dev",
    "methods": {},
    "version": 1
  },
  "userdoc": {
    "kind": "user",
    "methods": {},
    "version": 1
  }
}